{
  "contractName": "Election",
  "abi": [
    {
      "inputs": [],
      "stateMutability": "nonpayable",
      "type": "constructor"
    },
    {
      "anonymous": false,
      "inputs": [
        {
          "indexed": true,
          "internalType": "uint256",
          "name": "_candidateId",
          "type": "uint256"
        }
      ],
      "name": "Voted",
      "type": "event"
    },
    {
      "inputs": [],
      "name": "candidatesCount",
      "outputs": [
        {
          "internalType": "uint256",
          "name": "",
          "type": "uint256"
        }
      ],
      "stateMutability": "view",
      "type": "function",
      "constant": true
    },
    {
      "inputs": [],
      "name": "electionState",
      "outputs": [
        {
          "internalType": "enum Election.State",
          "name": "",
          "type": "uint8"
        }
      ],
      "stateMutability": "view",
      "type": "function",
      "constant": true
    },
    {
      "inputs": [],
      "name": "owner",
      "outputs": [
        {
          "internalType": "address",
          "name": "",
          "type": "address"
        }
      ],
      "stateMutability": "view",
      "type": "function",
      "constant": true
    },
    {
      "inputs": [],
      "name": "voteCount",
      "outputs": [
        {
          "internalType": "uint256",
          "name": "",
          "type": "uint256"
        }
      ],
      "stateMutability": "view",
      "type": "function",
      "constant": true
    },
    {
      "inputs": [],
      "name": "votersCount",
      "outputs": [
        {
          "internalType": "uint256",
          "name": "",
          "type": "uint256"
        }
      ],
      "stateMutability": "view",
      "type": "function",
      "constant": true
    },
    {
      "inputs": [],
      "name": "startElection",
      "outputs": [],
      "stateMutability": "nonpayable",
      "type": "function"
    },
    {
      "inputs": [],
      "name": "endElection",
      "outputs": [],
      "stateMutability": "nonpayable",
      "type": "function"
    },
    {
      "inputs": [
        {
          "internalType": "string",
          "name": "_name",
          "type": "string"
        }
      ],
      "name": "addCandidate",
      "outputs": [],
      "stateMutability": "nonpayable",
      "type": "function"
    },
    {
      "inputs": [
        {
          "internalType": "address",
          "name": "_voter",
          "type": "address"
        },
        {
          "internalType": "string",
          "name": "_aadhar",
          "type": "string"
        },
        {
          "internalType": "string",
          "name": "_phone",
          "type": "string"
        }
      ],
      "name": "addVoter",
      "outputs": [],
      "stateMutability": "nonpayable",
      "type": "function"
    },
    {
      "inputs": [
        {
          "internalType": "address",
          "name": "_current",
          "type": "address"
        }
      ],
      "name": "getRole",
      "outputs": [
        {
          "internalType": "uint256",
          "name": "",
          "type": "uint256"
        }
      ],
      "stateMutability": "view",
      "type": "function",
      "constant": true
    },
    {
      "inputs": [
        {
          "internalType": "uint256",
          "name": "_candidateId",
          "type": "uint256"
        }
      ],
      "name": "vote",
      "outputs": [],
      "stateMutability": "nonpayable",
      "type": "function"
    },
    {
      "inputs": [
        {
          "internalType": "address",
          "name": "_current",
          "type": "address"
        }
      ],
      "name": "isvoted",
      "outputs": [
        {
          "internalType": "bool",
          "name": "",
          "type": "bool"
        }
      ],
      "stateMutability": "view",
      "type": "function",
      "constant": true
    },
    {
      "inputs": [
        {
          "internalType": "uint256",
          "name": "_candidateId",
          "type": "uint256"
        }
      ],
      "name": "getCandidateDetails",
      "outputs": [
        {
          "internalType": "string",
          "name": "",
          "type": "string"
        },
        {
          "internalType": "uint256",
          "name": "",
          "type": "uint256"
        }
      ],
      "stateMutability": "view",
      "type": "function",
      "constant": true
    },
    {
      "inputs": [
        {
          "internalType": "address",
          "name": "_voterId",
          "type": "address"
        }
      ],
      "name": "getVoterDetails",
      "outputs": [
        {
          "internalType": "string",
          "name": "",
          "type": "string"
        },
        {
          "internalType": "string",
          "name": "",
          "type": "string"
        }
      ],
      "stateMutability": "view",
      "type": "function",
      "constant": true
    },
    {
      "inputs": [
        {
          "internalType": "address",
          "name": "_current",
          "type": "address"
        }
      ],
      "name": "getTurnout",
      "outputs": [
        {
          "internalType": "uint256",
          "name": "",
          "type": "uint256"
        },
        {
          "internalType": "uint256",
          "name": "",
          "type": "uint256"
        }
      ],
      "stateMutability": "view",
      "type": "function",
      "constant": true
    },
    {
      "inputs": [
        {
          "internalType": "string",
          "name": "str1",
          "type": "string"
        },
        {
          "internalType": "string",
          "name": "str2",
          "type": "string"
        }
      ],
      "name": "compare",
      "outputs": [
        {
          "internalType": "bool",
          "name": "",
          "type": "bool"
        }
      ],
      "stateMutability": "pure",
      "type": "function",
      "constant": true
    },
    {
      "inputs": [
        {
          "internalType": "address",
          "name": "_voterId",
          "type": "address"
        },
        {
          "internalType": "string",
          "name": "_aadhar",
          "type": "string"
        },
        {
          "internalType": "string",
          "name": "_phone",
          "type": "string"
        }
      ],
      "name": "checkHash",
      "outputs": [
        {
          "internalType": "uint256",
          "name": "",
          "type": "uint256"
        }
      ],
      "stateMutability": "view",
      "type": "function",
      "constant": true
    }
  ],
  "bytecode": "0x608060405260006005556000600655600060075534801561001f57600080fd5b50336000806101000a81548173ffffffffffffffffffffffffffffffffffffffff021916908373ffffffffffffffffffffffffffffffffffffffff16021790555060008060146101000a81548160ff021916908360028111156100855761008461008f565b5b02179055506100be565b7f4e487b7100000000000000000000000000000000000000000000000000000000600052602160045260246000fd5b61215b806100cd6000396000f3fe608060405234801561001057600080fd5b506004361061010b5760003560e01c8063516077d5116100a25780638da5cb5b116100715780638da5cb5b146102a657806398c07938146102c45780639acc4551146102e2578063ba71bef014610312578063c6384071146103435761010b565b8063516077d51461024557806359f784681461026157806362d73eb81461026b5780637c813037146102755761010b565b80632d35a8a2116100de5780632d35a8a2146101ab5780633a96fdd7146101c957806344276733146101f9578063462e91ec146102295761010b565b80630121b93f14610110578063193aa0001461012c5780632280043d1461015c57806327f9fd501461017a575b600080fd5b61012a600480360381019061012591906115b3565b610361565b005b61014660048036038101906101419190611784565b61060d565b604051610153919061181e565b60405180910390f35b610164610865565b60405161017191906118b0565b60405180910390f35b610194600480360381019061018f91906115b3565b610878565b6040516101a2929190611953565b60405180910390f35b6101b361098e565b6040516101c0919061181e565b60405180910390f35b6101e360048036038101906101de9190611983565b610994565b6040516101f09190611a16565b60405180910390f35b610213600480360381019061020e9190611a31565b610a00565b604051610220919061181e565b60405180910390f35b610243600480360381019061023e9190611a5e565b610ac3565b005b61025f600480360381019061025a9190611784565b610c49565b005b610269610f55565b005b61027361101a565b005b61028f600480360381019061028a9190611a31565b6110df565b60405161029d929190611aa7565b60405180910390f35b6102ae61117f565b6040516102bb9190611adf565b60405180910390f35b6102cc6111a3565b6040516102d9919061181e565b60405180910390f35b6102fc60048036038101906102f79190611a31565b6111a9565b6040516103099190611a16565b60405180910390f35b61032c60048036038101906103279190611a31565b61128c565b60405161033a929190611afa565b60405180910390f35b61034b6114c0565b604051610358919061181e565b60405180910390f35b6001600281111561037557610374611839565b5b600060149054906101000a900460ff16600281111561039757610396611839565b5b146103d7576040517f08c379a00000000000000000000000000000000000000000000000000000000081526004016103ce90611b7d565b60405180910390fd5b600360003373ffffffffffffffffffffffffffffffffffffffff1673ffffffffffffffffffffffffffffffffffffffff16815260200190815260200160002060009054906101000a900460ff16610463576040517f08c379a000000000000000000000000000000000000000000000000000000000815260040161045a90611be9565b60405180910390fd5b600260003373ffffffffffffffffffffffffffffffffffffffff1673ffffffffffffffffffffffffffffffffffffffff16815260200190815260200160002060009054906101000a900460ff16156104f0576040517f08c379a00000000000000000000000000000000000000000000000000000000081526004016104e790611c55565b60405180910390fd5b60008110158015610502575060055481105b610541576040517f08c379a000000000000000000000000000000000000000000000000000000000815260040161053890611cc1565b60405180910390fd5b60016000828152602001908152602001600020600201600081548092919061056890611d10565b91905055506001600260003373ffffffffffffffffffffffffffffffffffffffff1673ffffffffffffffffffffffffffffffffffffffff16815260200190815260200160002060006101000a81548160ff021916908315150217905550600760008154809291906105d890611d10565b9190505550807f7f511e347bf51eed3be100b3194247d5207f05f3b33de7d31e3e8ee73199a04960405160405180910390a250565b6000600360008573ffffffffffffffffffffffffffffffffffffffff1673ffffffffffffffffffffffffffffffffffffffff16815260200190815260200160002060009054906101000a900460ff1661069b576040517f08c379a000000000000000000000000000000000000000000000000000000000815260040161069290611da4565b60405180910390fd5b61076f600460008673ffffffffffffffffffffffffffffffffffffffff1673ffffffffffffffffffffffffffffffffffffffff16815260200190815260200160002060020180546106eb90611df3565b80601f016020809104026020016040519081016040528092919081815260200182805461071790611df3565b80156107645780601f1061073957610100808354040283529160200191610764565b820191906000526020600020905b81548152906001019060200180831161074757829003601f168201915b505050505084610994565b801561084b575061084a600460008673ffffffffffffffffffffffffffffffffffffffff1673ffffffffffffffffffffffffffffffffffffffff16815260200190815260200160002060030180546107c690611df3565b80601f01602080910402602001604051908101604052809291908181526020018280546107f290611df3565b801561083f5780601f106108145761010080835404028352916020019161083f565b820191906000526020600020905b81548152906001019060200180831161082257829003601f168201915b505050505083610994565b5b15610859576001905061085e565b600090505b9392505050565b600060149054906101000a900460ff1681565b6060600080831015801561088d575060055483105b6108cc576040517f08c379a00000000000000000000000000000000000000000000000000000000081526004016108c390611cc1565b60405180910390fd5b60016000848152602001908152602001600020600101600160008581526020019081526020016000206002015481805461090590611df3565b80601f016020809104026020016040519081016040528092919081815260200182805461093190611df3565b801561097e5780601f106109535761010080835404028352916020019161097e565b820191906000526020600020905b81548152906001019060200180831161096157829003601f168201915b5050505050915091509150915091565b60055481565b600081518351146109a857600090506109fa565b816040516020016109b99190611e60565b60405160208183030381529060405280519060200120836040516020016109e09190611e60565b604051602081830303815290604052805190602001201490505b92915050565b60008173ffffffffffffffffffffffffffffffffffffffff1660008054906101000a900473ffffffffffffffffffffffffffffffffffffffff1673ffffffffffffffffffffffffffffffffffffffff1603610a5e5760019050610abe565b600360008373ffffffffffffffffffffffffffffffffffffffff1673ffffffffffffffffffffffffffffffffffffffff16815260200190815260200160002060009054906101000a900460ff1615610ab95760029050610abe565b600390505b919050565b3373ffffffffffffffffffffffffffffffffffffffff1660008054906101000a900473ffffffffffffffffffffffffffffffffffffffff1673ffffffffffffffffffffffffffffffffffffffff1614610b51576040517f08c379a0000000000000000000000000000000000000000000000000000000008152600401610b4890611ec3565b60405180910390fd5b60006002811115610b6557610b64611839565b5b600060149054906101000a900460ff166002811115610b8757610b86611839565b5b14610bc7576040517f08c379a0000000000000000000000000000000000000000000000000000000008152600401610bbe90611f2f565b60405180910390fd5b604051806060016040528060055481526020018281526020016000815250600160006005548152602001908152602001600020600082015181600001556020820151816001019080519060200190610c209291906114c6565b506040820151816002015590505060056000815480929190610c4190611d10565b919050555050565b3373ffffffffffffffffffffffffffffffffffffffff1660008054906101000a900473ffffffffffffffffffffffffffffffffffffffff1673ffffffffffffffffffffffffffffffffffffffff1614610cd7576040517f08c379a0000000000000000000000000000000000000000000000000000000008152600401610cce90611f9b565b60405180910390fd5b600360008473ffffffffffffffffffffffffffffffffffffffff1673ffffffffffffffffffffffffffffffffffffffff16815260200190815260200160002060009054906101000a900460ff1615610d64576040517f08c379a0000000000000000000000000000000000000000000000000000000008152600401610d5b90612007565b60405180910390fd5b60006002811115610d7857610d77611839565b5b600060149054906101000a900460ff166002811115610d9a57610d99611839565b5b14610dda576040517f08c379a0000000000000000000000000000000000000000000000000000000008152600401610dd190612099565b60405180910390fd5b6001600360008573ffffffffffffffffffffffffffffffffffffffff1673ffffffffffffffffffffffffffffffffffffffff16815260200190815260200160002060006101000a81548160ff021916908315150217905550604051806080016040528060065481526020018473ffffffffffffffffffffffffffffffffffffffff16815260200183815260200182815250600460008573ffffffffffffffffffffffffffffffffffffffff1673ffffffffffffffffffffffffffffffffffffffff1681526020019081526020016000206000820151816000015560208201518160010160006101000a81548173ffffffffffffffffffffffffffffffffffffffff021916908373ffffffffffffffffffffffffffffffffffffffff1602179055506040820151816002019080519060200190610f179291906114c6565b506060820151816003019080519060200190610f349291906114c6565b5090505060066000815480929190610f4b90611d10565b9190505550505050565b60008054906101000a900473ffffffffffffffffffffffffffffffffffffffff1673ffffffffffffffffffffffffffffffffffffffff163373ffffffffffffffffffffffffffffffffffffffff1614610fad57600080fd5b60016002811115610fc157610fc0611839565b5b600060149054906101000a900460ff166002811115610fe357610fe2611839565b5b14610fed57600080fd5b6002600060146101000a81548160ff0219169083600281111561101357611012611839565b5b0217905550565b60008054906101000a900473ffffffffffffffffffffffffffffffffffffffff1673ffffffffffffffffffffffffffffffffffffffff163373ffffffffffffffffffffffffffffffffffffffff161461107257600080fd5b6000600281111561108657611085611839565b5b600060149054906101000a900460ff1660028111156110a8576110a7611839565b5b146110b257600080fd5b6001600060146101000a81548160ff021916908360028111156110d8576110d7611839565b5b0217905550565b6000808273ffffffffffffffffffffffffffffffffffffffff1660008054906101000a900473ffffffffffffffffffffffffffffffffffffffff1673ffffffffffffffffffffffffffffffffffffffff1614611170576040517f08c379a000000000000000000000000000000000000000000000000000000000815260040161116790612105565b60405180910390fd5b60075460065491509150915091565b60008054906101000a900473ffffffffffffffffffffffffffffffffffffffff1681565b60065481565b6000600260008373ffffffffffffffffffffffffffffffffffffffff1673ffffffffffffffffffffffffffffffffffffffff16815260200190815260200160002060009054906101000a900460ff1615611238576040517f08c379a000000000000000000000000000000000000000000000000000000000815260040161122f90611c55565b60405180910390fd5b600260008373ffffffffffffffffffffffffffffffffffffffff1673ffffffffffffffffffffffffffffffffffffffff16815260200190815260200160002060009054906101000a900460ff169050919050565b606080600360008473ffffffffffffffffffffffffffffffffffffffff1673ffffffffffffffffffffffffffffffffffffffff16815260200190815260200160002060009054906101000a900460ff1661131b576040517f08c379a000000000000000000000000000000000000000000000000000000000815260040161131290611da4565b60405180910390fd5b600460008473ffffffffffffffffffffffffffffffffffffffff1673ffffffffffffffffffffffffffffffffffffffff168152602001908152602001600020600201600460008573ffffffffffffffffffffffffffffffffffffffff1673ffffffffffffffffffffffffffffffffffffffff1681526020019081526020016000206003018180546113ab90611df3565b80601f01602080910402602001604051908101604052809291908181526020018280546113d790611df3565b80156114245780601f106113f957610100808354040283529160200191611424565b820191906000526020600020905b81548152906001019060200180831161140757829003601f168201915b5050505050915080805461143790611df3565b80601f016020809104026020016040519081016040528092919081815260200182805461146390611df3565b80156114b05780601f10611485576101008083540402835291602001916114b0565b820191906000526020600020905b81548152906001019060200180831161149357829003601f168201915b5050505050905091509150915091565b60075481565b8280546114d290611df3565b90600052602060002090601f0160209004810192826114f4576000855561153b565b82601f1061150d57805160ff191683800117855561153b565b8280016001018555821561153b579182015b8281111561153a57825182559160200191906001019061151f565b5b509050611548919061154c565b5090565b5b8082111561156557600081600090555060010161154d565b5090565b6000604051905090565b600080fd5b600080fd5b6000819050919050565b6115908161157d565b811461159b57600080fd5b50565b6000813590506115ad81611587565b92915050565b6000602082840312156115c9576115c8611573565b5b60006115d78482850161159e565b91505092915050565b600073ffffffffffffffffffffffffffffffffffffffff82169050919050565b600061160b826115e0565b9050919050565b61161b81611600565b811461162657600080fd5b50565b60008135905061163881611612565b92915050565b600080fd5b600080fd5b6000601f19601f8301169050919050565b7f4e487b7100000000000000000000000000000000000000000000000000000000600052604160045260246000fd5b61169182611648565b810181811067ffffffffffffffff821117156116b0576116af611659565b5b80604052505050565b60006116c3611569565b90506116cf8282611688565b919050565b600067ffffffffffffffff8211156116ef576116ee611659565b5b6116f882611648565b9050602081019050919050565b82818337600083830152505050565b6000611727611722846116d4565b6116b9565b90508281526020810184848401111561174357611742611643565b5b61174e848285611705565b509392505050565b600082601f83011261176b5761176a61163e565b5b813561177b848260208601611714565b91505092915050565b60008060006060848603121561179d5761179c611573565b5b60006117ab86828701611629565b935050602084013567ffffffffffffffff8111156117cc576117cb611578565b5b6117d886828701611756565b925050604084013567ffffffffffffffff8111156117f9576117f8611578565b5b61180586828701611756565b9150509250925092565b6118188161157d565b82525050565b6000602082019050611833600083018461180f565b92915050565b7f4e487b7100000000000000000000000000000000000000000000000000000000600052602160045260246000fd5b6003811061187957611878611839565b5b50565b600081905061188a82611868565b919050565b600061189a8261187c565b9050919050565b6118aa8161188f565b82525050565b60006020820190506118c560008301846118a1565b92915050565b600081519050919050565b600082825260208201905092915050565b60005b838110156119055780820151818401526020810190506118ea565b83811115611914576000848401525b50505050565b6000611925826118cb565b61192f81856118d6565b935061193f8185602086016118e7565b61194881611648565b840191505092915050565b6000604082019050818103600083015261196d818561191a565b905061197c602083018461180f565b9392505050565b6000806040838503121561199a57611999611573565b5b600083013567ffffffffffffffff8111156119b8576119b7611578565b5b6119c485828601611756565b925050602083013567ffffffffffffffff8111156119e5576119e4611578565b5b6119f185828601611756565b9150509250929050565b60008115159050919050565b611a10816119fb565b82525050565b6000602082019050611a2b6000830184611a07565b92915050565b600060208284031215611a4757611a46611573565b5b6000611a5584828501611629565b91505092915050565b600060208284031215611a7457611a73611573565b5b600082013567ffffffffffffffff811115611a9257611a91611578565b5b611a9e84828501611756565b91505092915050565b6000604082019050611abc600083018561180f565b611ac9602083018461180f565b9392505050565b611ad981611600565b82525050565b6000602082019050611af46000830184611ad0565b92915050565b60006040820190508181036000830152611b14818561191a565b90508181036020830152611b28818461191a565b90509392505050565b7f456c656374696f6e206973206e6f7420696e2070726f67726573730000000000600082015250565b6000611b67601b836118d6565b9150611b7282611b31565b602082019050919050565b60006020820190508181036000830152611b9681611b5a565b9050919050565b7f4e6f6e20617574686f726973656420757365722063616e6e6f7420766f746500600082015250565b6000611bd3601f836118d6565b9150611bde82611b9d565b602082019050919050565b60006020820190508181036000830152611c0281611bc6565b9050919050565b7f596f75206861766520616c726561647920766f74656400000000000000000000600082015250565b6000611c3f6016836118d6565b9150611c4a82611c09565b602082019050919050565b60006020820190508181036000830152611c6e81611c32565b9050919050565b7f496e76616c69642063616e646964617465204944000000000000000000000000600082015250565b6000611cab6014836118d6565b9150611cb682611c75565b602082019050919050565b60006020820190508181036000830152611cda81611c9e565b9050919050565b7f4e487b7100000000000000000000000000000000000000000000000000000000600052601160045260246000fd5b6000611d1b8261157d565b91507fffffffffffffffffffffffffffffffffffffffffffffffffffffffffffffffff8203611d4d57611d4c611ce1565b5b600182019050919050565b7f496e76616c696420766f74657220494400000000000000000000000000000000600082015250565b6000611d8e6010836118d6565b9150611d9982611d58565b602082019050919050565b60006020820190508181036000830152611dbd81611d81565b9050919050565b7f4e487b7100000000000000000000000000000000000000000000000000000000600052602260045260246000fd5b60006002820490506001821680611e0b57607f821691505b602082108103611e1e57611e1d611dc4565b5b50919050565b600081905092915050565b6000611e3a826118cb565b611e448185611e24565b9350611e548185602086016118e7565b80840191505092915050565b6000611e6c8284611e2f565b915081905092915050565b7f4f6e6c79206f776e65722063616e206164642063616e64696461746573000000600082015250565b6000611ead601d836118d6565b9150611eb882611e77565b602082019050919050565b60006020820190508181036000830152611edc81611ea0565b9050919050565b7f456c656374696f6e2068617320616c7265616479207374617274656400000000600082015250565b6000611f19601c836118d6565b9150611f2482611ee3565b602082019050919050565b60006020820190508181036000830152611f4881611f0c565b9050919050565b7f4f6e6c79206f776e65722063616e2061646420766f7465720000000000000000600082015250565b6000611f856018836118d6565b9150611f9082611f4f565b602082019050919050565b60006020820190508181036000830152611fb481611f78565b9050919050565b7f566f74657220616c726561647920616464656400000000000000000000000000600082015250565b6000611ff16013836118d6565b9150611ffc82611fbb565b602082019050919050565b6000602082019050818103600083015261202081611fe4565b9050919050565b7f566f7465722063616e277420626520616464656420616674657220656c65637460008201527f696f6e2073746172746564000000000000000000000000000000000000000000602082015250565b6000612083602b836118d6565b915061208e82612027565b604082019050919050565b600060208201905081810360008301526120b281612076565b9050919050565b7f4f6e6c792061646d696e20616363657373000000000000000000000000000000600082015250565b60006120ef6011836118d6565b91506120fa826120b9565b602082019050919050565b6000602082019050818103600083015261211e816120e2565b905091905056fea2646970667358221220a90f5af0abd82c3d33982ae4f488ba1ee9ff28232eb3c8cc6dac241f2cb9f91f64736f6c634300080e0033",
  "immutableReferences": {},
  "source": "// SPDX-License-Identifier: MIT\npragma solidity >=0.4.0 <0.9.0;\n\ncontract Election {\n    enum State {\n        NotStarted,\n        InProgress,\n        Ended\n    }\n\n    struct Candidate {\n        uint256 id;\n        string name;\n        uint256 voteCount;\n    }\n\n    address public owner;\n    State public electionState;\n\n    struct Voter {\n        uint256 id;\n        address name;\n        string aadhar;\n        string phone;\n        \n    }\n\n\n\n\n    mapping(uint256 => Candidate) candidates;\n\n    mapping(address => bool)  voted;\n    mapping(address => bool) isVoter;\n    mapping(address => Voter) voters;\n\n\n    uint256 public candidatesCount = 0;\n\n    uint256 public votersCount = 0;\n    uint256 public voteCount = 0;\n\n\n    \n    constructor() {\n        owner = msg.sender;\n        electionState = State.NotStarted;\n       \n    }\n\n    event Voted(uint256 indexed _candidateId);\n\n    function startElection() public {\n        require(msg.sender == owner);\n        require(electionState == State.NotStarted);\n        electionState = State.InProgress;\n    }\n\n    function endElection() public {\n        require(msg.sender == owner);\n        require(electionState == State.InProgress);\n        electionState = State.Ended;\n    }\n\n    function addCandidate(string memory _name) public {\n        require(owner == msg.sender, \"Only owner can add candidates\");\n        require(\n            electionState == State.NotStarted,\n            \"Election has already started\"\n        );\n\n        candidates[candidatesCount] = Candidate(candidatesCount, _name, 0);\n        candidatesCount++;\n    }\n\n    function addVoter(address _voter, string memory _aadhar, string memory _phone ) public {\n        require(owner == msg.sender, \"Only owner can add voter\");\n        require(!isVoter[_voter], \"Voter already added\");\n        require(\n            electionState == State.NotStarted,\n            \"Voter can't be added after election started\"\n        );\n\n        isVoter[_voter] = true;\n        voters[_voter] = Voter(votersCount, _voter, _aadhar, _phone);\n        votersCount++;\n    }\n\n    function getRole(address _current) public view returns (uint256) {\n        if (owner == _current) {\n            return 1;\n        } else if (isVoter[_current]) {\n            return 2;\n        } else {\n            return 3;\n        }\n    }\n\n    function vote(uint256 _candidateId) public {\n        require(\n            electionState == State.InProgress,\n            \"Election is not in progress\"\n        );\n        require(isVoter[msg.sender], \"Non authorised user cannot vote\");\n        require(!voted[msg.sender], \"You have already voted\");\n        require(\n            _candidateId >= 0 && _candidateId < candidatesCount,\n            \"Invalid candidate ID\"\n        );\n\n        candidates[_candidateId].voteCount++;\n        voted[msg.sender] = true;\n        voteCount++;\n\n        emit Voted(_candidateId);\n    }\n\n    function isvoted(address _current) public view returns ( bool) {\n        require(!voted[_current], \"You have already voted\");\n        \n        return voted[_current];\n        \n    }\n\n     \n\n    function getCandidateDetails(uint256 _candidateId)\n        public\n        view\n        returns (string memory, uint256)\n    {\n        require(\n            _candidateId >= 0 && _candidateId < candidatesCount,\n            \"Invalid candidate ID\"\n        );\n        return (\n            candidates[_candidateId].name,\n            candidates[_candidateId].voteCount\n        );\n    }\n\n\n    \n    function getVoterDetails(address _voterId)\n        public\n        view\n        returns (string memory, string memory)\n    {\n        require(\n            isVoter[_voterId] ,\n            \"Invalid voter ID\"\n        );\n        return (\n            voters[_voterId].aadhar,\n            voters[_voterId].phone\n        );\n    }\n\n     function getTurnout(address _current)\n        public\n        view\n        returns (uint256, uint256)\n    {\n        require(\n            (owner == _current) ,\n            \"Only admin access\"\n        );\n        return (\n            voteCount,\n            votersCount\n        );\n    }\n\n    function compare(string memory str1, string memory str2) public pure returns (bool) {\n        if (bytes(str1).length != bytes(str2).length) {\n            return false;\n        }\n        return keccak256(abi.encodePacked(str1)) == keccak256(abi.encodePacked(str2));\n    }\n\n    function checkHash(address _voterId,string memory _aadhar, string memory _phone)\n        public\n        view\n        returns (uint256)\n    {\n        require(\n            isVoter[_voterId] ,\n            \"Invalid voter ID\"\n        );\n        \n        if( compare( voters[_voterId].aadhar , _aadhar) && compare( voters[_voterId].phone,_phone))\n        {\n            return 1;\n        }\n        else{\n            return 0;\n        }\n    }\n}\n",
  "sourcePath": "C:\\Users\\Mehul Kaushal\\Desktop\\Mini\\Blockchan Voting\\Blockchan Voting\\contracts\\Voting_Contract.sol",
  "compiler": {
    "name": "solc",
    "version": "0.8.14+commit.80d49f37.Emscripten.clang"
  },
  "schemaVersion": "3.4.13",
  "updatedAt": "2023-05-15T09:05:46.758Z",
  "networkType": "ethereum",
  "devdoc": {
    "kind": "dev",
    "methods": {},
    "version": 1
  },
  "userdoc": {
    "kind": "user",
    "methods": {},
    "version": 1
  }
}